:020000040000FA
:100000001A205220202052205220522026205220F6
:100010002620522052205220522026204C202620DA
:100020004C2026204C205220522052202C203620BA
:100030004C2000288316F0308600831200308600A2
:1000400083120F3086004C208601080083120F3087
:100050008600522086010800831206144C20861464
:100060004C2006154C2086154C2008008312861162
:100070004C2006114C2086104C2006104C20080005
:10008000FA30A0000000A00B42280800FA30A100BE
:100090004020A10B482808000230A2004620A20BF5
:1000A0004E2808000430A3004620A30B5428080063
:0400B00000340034E4
:02400E00103F61
:00000001FF
